:020000040800F2
:1000000048050020E53200080533000807330008E2
:1000100000000000000000000000000000000000E0
:10002000000000000000000000000000093300088C
:1000300000000000000000000B3300080D33000832
:100040008F110008000000004312000897120008FA
:100050009B1700089F170008C71F0008FB2D00080A
:100060000000000033320008A7320008B332000855
:100070001D3300081F330008213300080000000072
:1000800023330008000000000000000025330008B2
:100090000000000027330008293300082B33000834
:1000A000000000002D330008000000002F3300087E
:1000B000FDB5B2B03A98049102A93B2288540020C1
:1000C0000D9026A8401C31900DE00498329A90477C
:1000D0000490002801D100F02FFF0D98401C0D90D6
:1000E0003398401C339033980178002910D025298B
:1000F000EBD100200790089009900A900B900C908B
:10010000002102240120139008201290339D05E065
:100110000D9800F013FF0800139901436D1C287817
:100120002028F8D023280BD02B2804D02D2804D049
:10013000302808D00AE02143F0E708000421ECE76A
:1001400008000821E9E708001021E6E72A280FD176
:10015000349802681068121D349B1A600F900028B2
:1001600004D542420F920800042101436D1C12E0A5
:1001700000200F90654A09E00F9B934205DA9E002C
:10018000F3185B00181830380F906D1C28780300A6
:10019000303B0A2BF0D328782E2803D00020C04310
:1001A0000E9027E06D1C28782A2808D13498006822
:1001B0000268001D349B18600E926D1C1AE02D28F9
:1001C00002D12D226D1C00E0002200200E900CE0D8
:1001D000002A09D10E9B4D4EB34205DA9E00F3185A
:1001E0005B00181830380E906D1C28780300303BE7
:1001F0000A2BEDD302A801872E78310041487844BC
:10020000FF30C01C00F07EFF002801D06D1C00E014
:10021000002602A83A214654405C682804D1287878
:1002200068280BD1622005E06C2807D128786C285B
:1002300004D1712002A93A2288546D1C17A8069097
:10024000287869460870681C33906846057828004D
:10025000253833D01C3800D10EE2001F022800D808
:100260000AE2133801D100F08BFD093800D103E216
:10027000801E01D100F021FE401E01D100F0CEFD14
:10028000401E022800D8F7E1001F01D100F0C6FD92
:10029000401F00D149E1401E01D100F071FD401E18
:1002A00000D1EBE0C01E10D0801E01D100F068FD2F
:1002B000C01E01D100F064FD00F00AFE252017A940
:1002C00008701398079000F00EFE349800680468D8
:1002D000001D349908600594002C00D0BAE002A8F3
:1002E0003B21405C002800D1ADE00024E4430648F7
:1002F0007844143000F014FF201A01D000F01CFEE6
:1003000000F0F1FD4C2E0000802E0000CBCCCC0C78
:10031000641E01D000F006FE3295079D17AC002D3B
:100320000FD0329E227802A9300000F0BFFE0028D4
:1003300002D4641C6D1EF5D13296002801D000F065
:10034000FBFD3020694608700A9C002C0DDD329DB3
:1003500001236A4602A9280000F0B9FE002801D056
:1003600000F0EAFD641EF3D13295059C089D002D36
:100370000FD0329E227802A9300000F097FE0028AC
:1003800002D4641C6D1EF5D13296002801D000F015
:10039000D3FD302769460F700B9C002C0DDD329D7C
:1003A00001236A4602A9280000F091FE002801D02E
:1003B00000F0C2FD641EF3D13295059808994418E7
:1003C000099D002D0FD0329E227802A9300000F046
:1003D0006DFE002802D4641C6D1EF5D132960028F3
:1003E00001D000F0A9FD684607700C9C002C0DDDC3
:1003F000329D01236A4602A9280000F068FE002809
:1004000001D000F099FD641EF3D1329502A8382185
:10041000405C400700D466E62020694608700198D9
:10042000002800DC5FE6019C329D01236A4602A998
:10043000280000F04CFE002801D000F07DFD641E75
:10044000F3D132954FE63F487844FF30C01F059006
:1004500000F049FD0E9D002D03D5200000F084FE24
:1004600009E02A000021200000F086FE002801D0CB
:10047000001B00E02800089000F035FD349800686B
:100480000268001D349908600020C043002110401C
:1004900002AA03C217A80590069A3C2302A803C823
:1004A000002904D1002802D10E9C002C13D05B1E21
:1004B00005072D0F3035EEB23A2E00DB2735D55427
:1004C00000090C072043090901D1002803D0059C2D
:1004D000D518AC42EBD33C20C01A0890D118059136
:1004E0000E99884208DA081A0A9002A8018FB94AC0
:1004F0000A40028700F0F7FC002901D400F0F3FC69
:1005000002A93822895C14220A40102A01D000F086
:10051000EAFC0F99079A891A0A9A891A081A002878
:1005200001DC00F0E0FC00F029FC02A83B21415C6A
:10053000002909D00024E4434B487844FF302B3095
:10054000D8E600BF602C00003A21405C62286AD0E7
:10055000682819D06A2845D06C2806D071284FD059
:10056000742831D07A2821D06FE03498006801686F
:10057000001D349A106000297AD10024E4433B48DE
:100580007844FF301738B5E6349800680168001DDC
:10059000349A1060002905D10024E443334878449C
:1005A000CA30A7E60D98088000F09DFC34980068DA
:1005B0000168001D349A1060002959D10024E443D9
:1005C0002A487844A63095E6349800680168001DF2
:1005D000349A106000294BD10024E4432348784426
:1005E0008A3087E6349800680268001D34990860F4
:1005F000002A13D10024E4431C4878446E3079E685
:10060000349800680268001D34990860002A05D1FA
:100610000024E4431548784452306BE60D98C11726
:1006200003C200F060FC349800680168001D349A31
:100630001060002905D10024E4430C4878442C3094
:1006400058E60D98087000F04EFC34980068016878
:10065000001D349A106000290AD10024E4430348A5
:100660007844083046E600BFF02A0000042B000062
:100670000D98086000F037FC34980268D21D0720FE
:1006800082433498026003CA349B1A6002AA03C2F0
:100690002022C80F04D007982D2117AA11540DE06D
:1006A00002A8008F204204D007982B2117AA1154CA
:1006B00004E0C00704D5079817A90A54401C079006
:1006C00017A807994318059326AA02A803C814ACD3
:1006D00003C468460078202101436846817061297F
:1006E00009D00E98002801D5062003E003D1672920
:1006F00001D113980E9002A803C808004C0064159D
:10070000641C10D109030ED003200890613D1A2DFE
:1007100004D24D497944FF31313111E04B497944DC
:10072000FF312B310CE0002C0FD100030DD1032041
:100730000890613D1A2D15D345497944FF31133195
:100740000322180000F03EFDCDE302A830C8B8A097
:1007500003C82940002680277F03B94207D2002022
:1007600069400DE03B497944FF311539E8E7080D50
:10077000AD4E361820002900AF4D0D40AB4929433E
:1007800002AB03C36846807861280FD105983021F9
:100790000170811C059169460978612901D1782190
:1007A00000E0582141700798801C079002A803C8F8
:1007B0009FA430CC04400D4002D1002C00D17EE13A
:1007C00068468078612800D0BAE00E98002803D5EA
:1007D000212002E0EFFF0000401C1690169F7F1CB6
:1007E00014A803C80022002300F0F9FC02A830C8B6
:1007F00002D2802000064540361F019626A90A70C5
:1008000026A8461C002F53DD20002900002280234B
:100810005B0300F0FDFC4BD828004A00530D1A0082
:100820001C32002B18D0002A16DDB14B9A4205DB92
:100830001B05802212061040184310E07E48084035
:10084000110501430D000CE0602900006029000043
:10085000642900005C290000802212061040002458
:1008600005002000290000F0EDFC1490FF1F002F70
:1008700009DD00F021FD02000B002000290000F03E
:1008800082FD04000D00F01D0721149A002A0ADDE4
:10089000491E08D4401E13071B0F03701211F5E701
:1008A000401E00220270491EFAD5C61D002FABDC87
:1008B00026A83199711A26AA521C169B0C0099423F
:1008C00000DD1C00002C34D48C4205DA411C095D8B
:1008D000082901DB0F2100E00021230026ADED18DF
:1008E00001E0641E6D1E5B1E2E788E42F9D00F292A
:1008F00004D1411CC95C491C401CC154002B04D5C7
:1009000026AA641C0198001D0190611E11D4531881
:10091000684600781D783035EEB23A2E02DB0600CC
:100920003A3EAD191D70491E5B1E0029F2D569467D
:1009300008700E98002800D4C0E0601E0E90BDE044
:1009400014A830C86D006D086B49300048436B49EE
:1009500000F090FD019007200199401A05DD02008A
:100960002000290000F07CFB0AE04242002064499C
:1009700000F076FB02000B002000290000F0A9FD2A
:100980006A469278662A02D1019A0A3200E006226B
:100990000E9B9A18142A00DD142226AB30241C70FA
:1009A0005C1C02E014A803C8169A002A46DD14ABAA
:1009B00003C3169214A803C800F056FC30900646F4
:1009C0000834042530000A2100F068FD0F003000D3
:1009D0000A2100F063FD06003037601E077030000A
:1009E0000A2100F05BFD0F0030000A2100F056FDE7
:1009F0000600A41E303727706D1EE3D10834169808
:100A0000083816900028CDDD309800F045FC020033
:100A10000B0014A803C800F0B6FC0022394B00F00C
:100A2000B9FD14AA03C2C5E702FCFFFF0000E03FC6
:100A3000FFFFFFFFFFFFFF7FFFFF0F803198201AAE
:100A400026A94A1C019902E0401E491E521C137837
:100A5000302BF9D0019169468978662902D1019934
:100A6000491C06E069468978652901D1139900E09F
:100A700000210E9B5C18A04200DA441E002C1DD4FD
:100A8000844204DA105D342801DD392100E0302190
:100A90002300501EC51801E0641E6D1E5B1E2E78DB
:100AA0008E42F9D0392902D1D15C491CD154002B96
:100AB00004D50200641C0198401C0190019D1600A1
:100AC000684600786946487000F026FE406A007863
:100AD000694608700E9F20B2002803DC139C054E67
:100AE0007E4410366846807866280DD16D1C25E05E
:100AF000FF070000C426000097750000A0860100D3
:100B00000000F03F84D7974168468078672847D136
:100B100028B20321C943884248DBB84246DA6D1C3B
:100B200002A8008F1299C0B2084203D120B2B84285
:100B300000DA070028B23F1A00D5002728B20028A3
:100B400000DDB7E00898411C08913021059A115446
:100B5000002F05DC02A8008F1299C0B2084206D00F
:100B60000898411C089169460978059A115428B2E1
:100B700041428F4200DA7D422DB268420B907D19CE
:100B800020B2854200DA2C0024B209942200310000
:100B90000598089BC01800F015FB281B0C90D7E0A7
:100BA00068464078612818D170201BE020B2B84216
:100BB00006DA02A9098F129AC9B2114200D10700C0
:100BC0007F1E00D5002768464078672802D165203F
:100BD000694607E04520694604E0684640784128B8
:100BE00001D1502048700898411C08913178059A2D
:100BF0001154711C002F05DC02A8008F129AC0B29C
:100C0000104219D00898421C08926A461278059B37
:100C10001A54002F10DD641E20B2874200DA3C0017
:100C200022B20598089BC01800F0CCFA24B20898AC
:100C300000190890381B0B900598089940186946D0
:100C40004978017029B2002903D42B214170861CF8
:100C500003E02D224270861C4D42002412A9280078
:100C60000D0005E00A2100F005FC2970641C6D1CD4
:100C700000B20028F6DC012C08DC68464078202110
:100C80000143652902D130203070761C002C09D137
:100C900030203070761C07E0641E12A8005D3030F2
:100CA0003070761C002CF7DC059808994018301A33
:100CB00009904DE020B229B288421EDA22B23100FA
:100CC0000598089BC01800F07DFA24B20898001916
:100CD00008902DB2291B0B91002F05DC02A9098F6A
:100CE000129AC9B2114206D069460978059A115480
:100CF0000998401C09900C972AE02AB23100059807
:100D0000089BC01800F05EFA28B2089909180891EB
:100D1000641B002F05DC02AA128F129BD2B21A426A
:100D200005D04A1C08926A461278059B5A5421B293
:100D30008F4200DA3C0022B231180598089BC01897
:100D400000F040FA24B2089800190890381B0B9064
:100D500002A83821405C14210140102900D0C2E0D3
:100D60000798089940180B994018099940180C9950
:100D700040180F99884200DBB5E0081A0A90B2E0EB
:100D800002AA3A20105C622808D068280ED06A288F
:100D900014D06C281DD0712810D01AE03498016846
:100DA0000868091D349B1960C0B218E034980168C6
:100DB0000868091D349B196080B210E034980368FC
:100DC000DB1D072083433498036003CB349C2360EE
:100DD00006E0349801680868091D349B19600021F9
:100DE00002AB03C3108F1299C0B208425BD002A8B5
:100DF00003C8002901D1002855D068460078202179
:100E0000014378294FD1079817A930220A54401C72
:100E1000421C07926A4612780A5444E002AA3A2019
:100E2000105C622808D068280ED06A2814D06C287C
:100E30001DD0712810D01AE0349801680868091D87
:100E4000349B196040B218E0349801680868091DA5
:100E5000349B196000B210E034980368DB1D072052
:100E600083433498036003CB349D2B6006E03498B1
:100E700001680868091D349B1960C11702AB03C3E0
:100E8000002902DA07982D2109E0108F204202D0B4
:100E900007982B2103E0C00705D50798202117AA42
:100EA0001154401C079017A80799401805906846F0
:100EB000017802A800F044F815E0139807903498E0
:100EC00000680168001D349A106017A801700AE0DC
:100ED000252017A908701398079068460078002805
:100EE00001D04D7007940F980799401A0A99401A3B
:100EF0000899401A0B99401A0999401A0C99401AFE
:100F0000019002A83821405C400701D5FFF705FA9F
:100F10002020694608700198002801DCFFF7FDF9E0
:100F2000019C329D01236A4602A9280000F0CFF8F7
:100F3000002801D1FFF7ECF90020C04335B0F0BD27
:100F4000F2B586B0040025696F2901D1082707E0B2
:100F5000084620210143782901D00A2700E0102704
:100F60003C2603CC083C04AA03C26A46127E642ACB
:100F700003D06A46127E692A09D1002907DA04A83B
:100F800003C800220023121A8B4104A80CC004A835
:100F900003C800290DD100280BD1206B002808D1EF
:100FA000082F3BD13820205C000737D53B26302066
:100FB00033E00294009504A830C8761E0196200004
:100FC00029003A00FB1700F0ADFB3032D0B23A28CE
:100FD00003DB6846007E51381218009882552000C5
:100FE00029003A00FB1700F09DFB04000D0001D121
:100FF000002C05D00298C068009989198842DCD37A
:10100000029C009D082F09D13820205C000705D5DF
:10101000A85D302802D0761E3020A8553C20801BC9
:10102000A061A919E160216B884206DA081A2062E2
:10103000208F1C490140218710E000290ED538215E
:10104000615C14220A40102A08D1616B6269891A16
:10105000226A891A081A002800DD206207B0F0BD54
:10106000F8B50026104F04000D00009214E0C007F0
:1010700007D532003B002000290000F08BFA040065
:101080000D000098401000903000390032003B0005
:1010900000F080FA06000F0000980028E7D1200039
:1010A0002900F4BDEFFF00000000244010B503004C
:1010B0000C001100A0689847A060002804D0E06AE6
:1010C000401CE062002010BD0020C04310BDF8B5F8
:1010D0000024002B11D007000E0014001D00217801
:1010E000B068B847B060002809D0F06A401CF062D0
:1010F0000020641C6D1EF2D104002000F2BD00200F
:10110000C043F9E7C9B202788A4203D0401C002AE2
:10111000F9D1002070470268531C036011707047BA
:1011200080B5002801D100BF07A006490B68002B3D
:1011300003D022220021984701E000F028FB222062
:1011400002BD000044010020636F6E737472616918
:101150006E742068616E646C65723A20626164200E
:101160006D65737361676500431C0178401C09421B
:10117000FBD1C01A70472E00C9B2521E05D30378A6
:10118000401C8B42F9D1401E704700207047FEE79B
:1011900070B4103A03D378C9103A78C0FBD2530721
:1011A00001D318C918C001D508C908C0D20704D393
:1011B0000B880380891C801C002A01D50B780370E2
:1011C00070BC70478B0701D18307E1D0124205D074
:1011D0000B78491C0370401C521EF9D1704730B483
:1011E000012464054D00EC420BD85D00EC4208D8A8
:1011F0000C001C4364000443144304D2994200D100
:10120000904230BC7047FCD08B42FAD18242F8E762
:1012100030B4012464054D00EC420BD85D00EC4273
:1012200008D80C001C4364000443144304D28B42CE
:1012300000D1824230BC7047FCD09942FAD1904232
:10124000F8E7FEE7F4464A1805D200F00FF801D59A
:1012500080174008604700F009F80121C90788425B
:1012600000D90800404260474A1812D2400DC90216
:1012700008430121C9070843520D40210901521AB0
:10128000521C06D452421F3201D4D0407047C017BE
:10129000704700207047FEE7010042221201D21E73
:1012A000004207D002D4521E0018FCD5C10A4005E6
:1012B00012058918704700000100EED54042F4463F
:1012C000FFF7EBFF0122D207114360478B4200D1A9
:1012D000824205D98446100062468C461900634656
:1012E000DF184C18640D7F0D3AD0661C760537D098
:1012F000E61B352E34DCDB022B43DB0A0C0DC90266
:101300002943C912202E0DDB1700203E06D01F00F6
:10131000F741F3405F400026012A7741C018714130
:101320000DD217E01700F741F2405740F3415A4001
:10133000B340F3405A400026801859410AD3A21CFA
:1013400052050FD0C207012F724117004008CB078A
:1013500018434908641C24054208AF4170416141AB
:10136000F0BC7047641C21050020F9E76B4010E0D9
:101370006B40ABE7F742F3D1E943F1E72442EFD109
:1013800000200021ECE7F0B40125ED070F005F40DD
:10139000EED40C00871A9C4105D2C01BA141D21982
:1013A000634169406B40AE0ADF184C18F442E1D249
:1013B000640D7F0DE2D0E61B362ED1DCDB022B4321
:1013C000DB0AA4460C0DC9022943C90A012E28DCF8
:1013D00004D1D6075208DF073A435B08EF0A76428A
:1013E0009041994114D039423BD1B619404149410D
:1013F000761C394204D1761C001849413942FAD092
:10140000B9436746B74208D9A41B24052143A7E77F
:101410000042EAD13642E8D1A2E7E40AE10700201F
:101420009EE7202E0BDD203E1F00F340F7415F407A
:10143000012A002257417E42984191410BE017005A
:10144000F741F2405740F3415A40B340F3405A400D
:101450007E42904199410A0303D2641EB61940416D
:1014600049410027641E24054208AE41784161418C
:10147000F0BC7047CA0F00D0494203105A400DD04B
:1014800004B500D3404200F009F8009AD20701D316
:101490004942124200D5404204BD0000094214D026
:1014A00088420FD30122030C01D10004120400234F
:1014B00000185B418B4200D35B1A5241F8D31900EC
:1014C0001000704701000020704708B500F064F973
:1014D00008BDF0B40E005E400125ED072E40B44675
:1014E000AE0ADF184C18F4423BD2F74241D2640DE9
:1014F00043D07F0D38D0E41BC902DB0229432B43C4
:10150000CF0ADB0A0600B61A9F4104D2641EB61940
:101510007F41B6185F416812800D2418001884427C
:1015200022DAE80C0021B6197F41B61A9F4102D297
:10153000B6185F413F1C40414941F4D3241C21DDD2
:101540002405B6197F41B61A9F4105D33743C60714
:1015500037430026012F7041614166463143F0BC9C
:101560007047FCD1F74205D20020C1434905490824
:10157000F3E704D00020C143F1E77F0DFAD000204B
:101580006146ECE72442FAD1401C61410F03F6D3D7
:101590000020E2E7F0B50E005E400125ED072E4089
:1015A000B446AE0ADF184C18F44208D2F7420ED205
:1015B000640D01D07F0D12D100206146F0BD05D130
:1015C000F74201D87F0D05D10020C143F0BDFBD10A
:1015D000640DF9D00020C143490549088FE0E419A2
:1015E000C902DB0229432B43DB0A460DC00231430B
:1015F0008E4630B487B295B27D432E0CADB2140C3A
:101600007C43A419260C240425439CB27C43A419D2
:10161000190C7943270CC919A4B20F043C43090CD7
:10162000000C97B247432E0CBE193543ADB2170CD0
:101630004743360CBF19A6B2BF193E043543240CEC
:101640003E0C36199FB24743BF19BCB23E0C8919F4
:101650001F0C47437F183E043443390C704680B258
:1016600097B247432E0CBE193543ADB2170C474312
:10167000360CBF19A6B2BF193E043543240C3E0CEC
:1016800036199FB24743BF19BCB23E0C89191F0CD3
:1016900047437F183E043443390C77463F0C90B2E1
:1016A00078432E0C80190604ADB22E43050CA0B26F
:1016B0002D18120C7A435019020C80B2240CA41875
:1016C0009AB27A43121914042043120C89181B0C85
:1016D0007B43C91830BCEF0A394203D1B6194041E7
:1016E0004941641E6F12BF0DE41B0BDBFF19BC42A6
:1016F00011DA240500274208AE417841614166466F
:101700003143F0BD641C05D1401C6141CF0201D3BF
:101710004908F4E750E75DE7014870470000000022
:1017200010000020124224D0994228D970B500251B
:101730001B4202D00C00002109E0002401264918B8
:101740006441944200D3A41A7641F8D331000126B3
:1017500001E0764109D2001864416D41A41A9D410F
:10176000F7D2A4185D41B619F5D3300022002B0042
:1017700070BD1B42D8D108B500F010F808BD01D1EA
:101780009042D3D202000B0000210020704780B5A8
:10179000012000F005F801BD7047FEE77047FEE745
:1017A00080B500BF00BF024A11001820ABBEFBE7A6
:1017B0002600020070B5040001D1012070BD250093
:1017C000403500266878002803D12E70200000F0F4
:1017D000A2FA242068702068016801229143016008
:1017E0006068B2490140206801612168B0488A6898
:1017F00002408A60E1680129A16801D1C24301E089
:10180000842212020A4321688A60E168022903D116
:10181000802109012268516021684A68A54B134361
:101820004B602168CA681040C86020696169014343
:10183000A069000208432168C860E069216A014389
:10184000206801602068016801220A4302606E601E
:10185000202068702663AE70002070BDFEB50400C5
:101860000F0016001D0040304078202800D07FE097
:101870004020205C01287BD001204021605400F0F2
:10188000B3FA0190009019230122D103200000F047
:1018900029F9002869D12120210040314870102009
:1018A000210040318870002021004031486066628C
:1018B000658560638048089E618DFF290BD9FF21F3
:1018C0002185009080235B04FF223900200000F076
:1018D000F8F9019D11E0628D2285009080239B0420
:1018E000D2B2F2E7FF2020850020009080235B0425
:1018F000FF223900200000F0E4F9608D00282DD08F
:101900002A003100200000F019F900282DD1606A6A
:10191000007821688862606A401C60626748618D57
:1019200009186185218D08182085618D0029E4D072
:101930000004E2D10095330000228021200000F055
:10194000D1F8002811D1608DFF28CBD8628D228577
:101950000020009080239B04D2B2CAE731002A0005
:10196000200000F014F9002801D00120FEBD8DE018
:101970000220FEBDFEB504000F0016001D00403021
:101980004078202800D07FE04020205C01287BD0D8
:1019900001204021605400F027FA019000901923A3
:1019A0000122D103200000F09DF8002869D12220F7
:1019B0002100403148701020210040318870002003
:1019C0002100403148606662658560633C48089E3E
:1019D000618DFF290BD9FF212185009080235B04B5
:1019E000FF223900200000F06CF9019D11E0628DAA
:1019F0002285009080239B04D2B2F2E7FF2020854D
:101A00000020009080235B04FF223900200000F0BA
:101A100058F9608D00282DD02A003100200000F0F8
:101A2000DAF800282DD12068406A616A0870606A7F
:101A3000401C60622149208D40182085628D51181C
:101A40006185618D0029E4D00004E2D10095330066
:101A500000228021200000F045F8002811D1608D7F
:101A6000FF28CBD8628D22850020009080239B0424
:101A7000D2B2CAE731002A00200000F088F800281E
:101A800001D00120FEBD01E00220FEBD2020216822
:101A9000C86121684A680B4B13404B6021004031FC
:101AA0004870002088700870FEBD0000FFFFFFF046
:101AB000FF7FFFFF0080000200200080FFFF00008A
:101AC0000024008000E800FE00688169890701D5D4
:101AD00000218162012182690A4002D18269114399
:101AE00081617047F8B5002405000F006846027058
:101AF0001E00286880693840B84201D1012000E00A
:101B0000002069460978884216D10020C0438642E9
:101B1000EFD000F069F90699401A864201D3002EF1
:101B2000E7D128004030202142680A4342604170DA
:101B3000847004700120F2BD0020F2BD70B5040075
:101B40000D0016002068806980071ED4320029002D
:101B5000200000F07DF8002801D0012070BD002099
:101B6000C0438542EED000F03FF9801B854201D38F
:101B7000002DE7D120004030202142680A43426016
:101B80004170002181700170E7E7002070BDF8B559
:101B9000202504000E00170020688069284018D115
:101BA0003A003100200000F053F800280FD100F077
:101BB0001BF9C01B864201D3002EEDD1200040301E
:101BC0004168294341604570002181700170012006
:101BD000F2BD0020F2BDF8B5202504000F000092F0
:101BE00004262068806930402FD1009A39002000F7
:101BF00000F02EF8002826D12068816929400FD1F5
:101C000000F0F2F80099401A874201D3002FE8D182
:101C1000200040304168294341604570002111E0B7
:101C200081690E4002D0218D00290ED1C561206846
:101C300041682C4A0A404260200040300021416047
:101C40004570817001700120F2BD0020F2BD0000DE
:101C5000F8B5102403689B69234030D005000F00BD
:101C60000092202628688169314011D10020C043AC
:101C70008742F7D000F0B8F80099401A874201D3A4
:101C8000002FEFD12800403041683143416010E01F
:101C9000C4612868C6612800FFF716FF28684168FC
:101CA000104A0A40426028004030416804220A433A
:101CB000426046700021817001700120F2BD002059
:101CC000F2BDF0B5059C00684568660D064F3743C8
:101CD000BD438905890D294312040A4313431C435C
:101CE0004460F0BD00E800FEFF63FF0381B0012007
:101CF00039490A6802430A600A6810400090009857
:101D0000802040054A6802434A60496808400090C4
:101D1000009801B0704710B586B00400142200216D
:101D200001A800F067F820682C49884222D1802061
:101D300080022B4C216801432160216808400090FB
:101D40000098C020C0000190122002900020039053
:101D5000032004900420059001A99020C00500F004
:101D600053F880208003A1680143A160A168084066
:101D70000090009806B010BD10B586B00400142283
:101D8000002101A800F036F820681649884221D1C8
:101D900013488021C90142680A43426042681140E9
:101DA000009100998021890202680A43026000685C
:101DB0000140009100980C20019002200290002028
:101DC0000390032004900120059001A99020C005F4
:101DD00000F01AF806B010BD181002400054004080
:101DE000141002400038014001484068704700BFAD
:101DF0000000002010B504000800110002002000BF
:101E000000F0BAF8200010BDFEB5002201230193B6
:101E10002AE0052703E0524FB842FAD10327A74032
:101E200037432F604F4C2668DC4326404D68ED0356
:101E300000D51E434B4D2E606E6826404F68BF0391
:101E400000D51E436E60AE6826404F68FF0200D585
:101E50001E43AE60EE6834404E68B60202D52600DE
:101E60001C003443EC60521C0C682300D34076D035
:101E7000019B934002932340F5D094006D462C7053
:101E80004C68022C01D0122C11D1D408A4000519E1
:101E90002C6A6E4637781C263E400F27B740BC435D
:101EA0000F69BC4637006646BE4026432E62066870
:101EB00054000327A740FD432E400F79BF07BF0FF3
:101EC000A740374307604E68012E05D0022E03D08D
:101ED000112E01D0122E11D186682E40CF68A74056
:101EE000374387604768029EB743BC464E68370950
:101EF000019E3E40964067463E434660C668354078
:101F00008E68A6402E43C6604C68E400ABD5164CE4
:101F10002468019D2543144C25602468019D2540BB
:101F20000295029C114C9508AD0065192E686C460F
:101F300027780C243C400F27A740BE439027FF057D
:101F4000B84201D100276AE7094FB84201D1019F89
:101F500065E7084FB84200D05DE702275FE7F7BDAD
:101F6000000C004800040140181002400800014025
:101F700000040048000800481206130A1A43130C14
:101F80001A4300BF094205D0830705D00270401CE8
:101F9000491EF9D1704700001300103906D330B440
:101FA0001400150010393CC0FCD230BC490700D3E6
:101FB0000CC000D504C0890002D30280801C002917
:101FC00000D502707047FEE7FEB5060019D0AD4C93
:101FD0003078C00717D58027BF0260680C21014008
:101FE000042909D060680C210140082941D16068AA
:101FF0007908084088423CD12068074003D07068C7
:10200000002800D19BE1307880071AD5F827FF43DC
:1020100060680C21014007D060680C21014008294C
:102020005AD16068C00357D42068800703D5F06890
:10203000012800D083E1206807403069C0003843A0
:1020400020603078000778D50227F0690028606AA0
:1020500064D0012101436162FFF7C6FE0500606A9A
:1020600038406AD1FFF7C0FE401B0228F7D9032091
:10207000FEBD73687908012B09D0B348B34A002B21
:1020800009D0052B07D120688A000243226020680E
:102090000143216005E021680A4022602168084070
:1020A0002060706800280BD0FFF79EFE05002068B6
:1020B0003840A8D1FFF798FE401B6528F7D3D6E734
:1020C000FFF792FE0500206838409CD0FFF78CFE99
:1020D000401B6528F7D3CAE7F068002820680ED0B7
:1020E000012101432160FFF77FFE05002068800782
:1020F000A1D4FFF779FE401B0228F7D9B7E70121E9
:1021000088432060FFF770FE05002068800798D59F
:10211000FFF76AFE401B0228F7D9A8E70121884390
:102120006062FFF761FE0500606A384005D0FFF786
:102130005BFE401B0228F7D999E704273068384036
:1021400062D000200190B806E169014008D1E16940
:102150000143E161E169084000900098012001908D
:102160007B480068C00512D479480068A10D01437E
:1021700077480160FFF738FE050075480068C00524
:1021800005D4FFF731FE401B6528F6D36FE7B06832
:10219000012808D0002801D1206A09E00528206A1A
:1021A00006D138432062206A01210143216205E003
:1021B000012188432062206AB8432062A44800902D
:1021C000B06800280CD0FFF70FFE0500206A8007DA
:1021D00013D4FFF709FE401B00998842F6D346E767
:1021E000FFF702FE0500206A800706D5FFF7FCFD19
:1021F000401B00998842F6D339E70198002803D0A4
:10220000E06994490140E1613078C0061DD57069EC
:10221000F825ED43012837D1606B07436763606B96
:10222000012101436163FFF7DFFD0700606B800759
:1022300005D4FFF7D9FDC01B0228F7D917E7606B5B
:102240000540B069C00028436063306A002878D038
:1022500061680C220A40082A5CD08027BF0492499A
:102260000228206848D101402160FFF7BDFD05002C
:102270002068384022D0FFF7B7FD401B0228F7D96D
:10228000F5E600BF001002400421C9438842606B9C
:1022900002D101406163D2E707436763606B0121AC
:1022A00088436063FFF7A0FD0500606B8007CCD515
:1022B000FFF79AFD401B0228F7D9D8E6E06A0F2104
:1022C0008843F16A0143E162606878490140B06A7D
:1022D0000843716A01436160206879080143216005
:1022E000FFF782FD0500206838402AD1FFF77CFD0A
:1022F000401B0228F7D9BAE601402160FFF774FDC0
:102300000500206838401CD0FFF76EFD401B0228F6
:10231000F7D9ACE6012812D06068E16A8022520247
:102320000240736A9A420AD10907090FF26A914280
:1023300005D1F02189030140B06A814201D001201A
:10234000FEBD0020FEBD0000FFFFFBFFFFFFFEFF04
:1023500000700040F8B5040060D000915448006857
:10236000C107C90F009881420CD25148016801226F
:102370009143009A0A4302600068C107C90F0098A0
:1023800081424BD121684B4D022001420CD04907BC
:1023900004D56968E022D2000A436A606968F022C5
:1023A0009143A2680A436A6001272168394025D019
:1023B0006168012902D12868800303E0022903D162
:1023C0002868800103D429E02A68104026D0686874
:1023D0000322904301436960FFF706FD0600686829
:1023E0000C21014060688000814207D0FFF7FCFCAF
:1023F000801B17498842F2D30320F2BD2C48009974
:1024000002683A4091420BD20168B943009A0A43EC
:102410000260006807400098874201D00120F2BDA9
:102420002078400705D5686823490140E0680843E3
:10243000686000F011F821496A681206120F895C81
:10244000C8401F490860032000F054F80020F2BD86
:1024500089130000FFFFFFEF1A4B19681A480C227E
:102460000A40082A00D0704730B50F2219A48D0CFD
:102470001540645D9B6AC90307D500BF19A11A40C6
:10248000895CFFF70BF8604330BD20000F494843DB
:1024900030BD0B4800680E490A4A12685205520FB7
:1024A000895CC84070470000FFFFFFFEFFFFC2FFCE
:1024B0000020024000100240FFF8FFFFD432000865
:1024C0000C0000200410024000127A0000093D00B8
:1024D0001433000802030405060708090A0B0C0D53
:1024E0000E0F10100102030405060708090A0B0C61
:1024F0000D0E0F1038B505000D4CFA208000217824
:10250000FEF7CCFF01000B480068FEF7C7FF00F0A4
:1025100034F800280AD1042D08D200222900002016
:10252000C04300F026F8A560002032BD012032BD76
:10253000000000200C00002010B5C200182313403A
:10254000FF249C40E2438907090E9940030004D40C
:1025500014489B089B00C01806E0134B0007000FAF
:10256000083880088000181803681A401143016079
:1025700010BD80B5FFF7E0FF01BD10B5401E802102
:102580004904884201D3012010BD084C606003213A
:102590000020C043FFF7D0FF0020A060072121608A
:1025A00010BD000000E400E01CED00E010E000E0E1
:1025B00038B5040014D0250070356868002803D1B0
:1025C00028702000FFF7D8FB24206860206801688D
:1025D000012291430160200000F091F8012801D10F
:1025E000012032BD606A002802D0200000F011F9FD
:1025F00020684168084A0A404260206881680822D1
:1026000091438160FFE72068016801220A4302606C
:10261000200000F065F932BDFFF7FFFFFEB50700AF
:102620001C0070304068202867D10D000BD01600C8
:1026300009D0B86880214901884206D1386900284C
:1026400003D1E80701D50120FEBD7020385C0128C8
:1026500053D0012070217854002039007031C860B7
:102660002120390070314860FFF7BEFB50217E52B7
:10267000390050314E80B96880225201914206D112
:102680003969002903D1019402900C0011E029005E
:102690000025F8E721780185641C07E03868002CE4
:1026A000F8D12988C905C90D0185AD1C7088401E67
:1026B00070803E005036708800280AD00198009043
:1026C000029B00228021380000F040F90028E5D06C
:1026D00009E0029B0198009000224021380000F0A0
:1026E00035F9002801D00320FEBD380070302021CC
:1026F0004160002101700020FEBD0220FEBDF8B542
:10270000050000260020002429680A688C4B13402D
:10271000AA681A432B6913436A691A43EB69134386
:102720000B604A68874B1340EA681A434A608A681C
:10273000854B1340AA691A432B6A13438B60AD493A
:1027400009688907890F0BD0022906D003D3032912
:1027500005D1022104E0042102E0082100E010215B
:102760000091A54F80221202E9699142009927D178
:10277000002906D0022907D0042909D008290DD044
:1027800014E0FFF786FE05E0696848089B4A08E008
:10279000FFF762FE696840004A0802E0696848087D
:1027A00052008018FEF77AFE80B200E0012401009A
:1027B0001039B94228D207400007400F384320E0C3
:1027C000002906D0022907D0042909D008290CD0F5
:1027D00012E0FFF75EFE05E069684808884A06E0F7
:1027E000FFF73AFE69684A0801E0696848088018FE
:1027F000FEF754FE80B200E0012401001039B94216
:1028000002D22968C86000E001242E666E662000AE
:10281000F2BD2421415CC90706D501684A68794B9D
:102820001340826A1A434A602421415C890706D515
:1028300001684A68744B1340C26A1A434A602421F3
:10284000415C490706D501684A68704B1340026B2A
:102850001A434A602421415C090706D501684A6889
:102860006B4B1340426B1A434A602421415CC906FA
:1028700006D501688A68674B1340826B1A438A60E9
:102880002421415C890606D501688A68134B1340F0
:10289000C26B1A438A602421415C490611D5016844
:1028A0004A685D4B1340026C1A434A60026C8023F5
:1028B0005B039A4205D14A68584B1340426C1A4355
:1028C0004A602421415C090606D501684A68544BD8
:1028D0001340806C1843486070470000FFDFFFFF23
:1028E000F8B5040000257030C560FFF77DFA0700D9
:1028F0004C4E20680068000709D500963B00002276
:1029000080218903200000F021F800280DD12068E3
:10291000006840070BD500963B0000228021C903C8
:10292000200000F013F8002801D00320F2BD2100A0
:1029300070312020486088600D700020F2BD0000DA
:10294000F369FFFFFFCFFFFFFFF4FFFFFEB5089F16
:10295000802424010025060001916846027002933C
:102960003068C069019901400198814201D101207C
:1029700000E0002069460978884238D10020C04331
:102980008742EDD0FFF730FA0299401A874201D30F
:10299000002F11D130680168234A0A400260306874
:1029A00081680122914381603000703020214160B4
:1029B000816005700320FEBD306800684007CFD5F8
:1029C0003068C0692040CBD030680462306801684C
:1029D000154A0A4002603068816801229143816093
:1029E00030007030202141608160C160E1E700204B
:1029F000FEBD000030100240F0FF00000024F40093
:102A000000127A00FFFFFDFFFFFFFEFFFFFFFBFF4D
:102A1000FF7FFFFFFFEFFFFFFFFFEFFFFFFF9FFFC6
:102A2000FFFFF7FFFFFFFF015FFEFFFFF8B500F0BC
:102A3000E7F800F0A1F88020800247490A680243C5
:102A40000A600968084000900098444C27008037CD
:102A5000434838602600843642483060002575605F
:102A60000120B060F56035617561B561F5613800D0
:102A7000FEF7A0FE002801D000F0B8F800213800D1
:102A800000F0CEF8002801D000F0B0F800213800A6
:102A900000F0E3F8002801D000F0A8F832482060E8
:102AA000962080016060A560E56025610C20606172
:102AB000A561E561256265622000FFF779FD0028C8
:102AC00001D000F093F800F0F1F82100D03120009F
:102AD000CC3000F001F9254DB06C00F075F9020022
:102AE0000B0023A1280000F089F96423072200BF0E
:102AF0003FA12000FFF792FD2800FEF735FB64237D
:102B000082B229002000FFF789FD1AA7642303225F
:102B100039002000FFF782FDF06C00F055F902004B
:102B20000B0013A1280000F069F96423062200BFFE
:102B300031A12000FFF772FD2800FEF715FB64238A
:102B400082B229002000FFF769FD642303223900C7
:102B50002000FFF763FDFEE714100240480000204C
:102B6000005400402B1D2000003801401C010020B3
:102B700025660000200D0A0010B594B03022002117
:102B800008A8FFF737F91022002104A8FFF732F94F
:102B9000102200216846FFF72DF90220089001203D
:102BA0000B9010200C900024109408A8FFF70CFA4A
:102BB000002801D000F01AF807200490059406942C
:102BC0000794002104A8FFF7C5FB002801D072B6C6
:102BD000FEE72120009002940394684600F02EF94D
:102BE000002801D072B6FEE714B010BD72B6FEE741
:102BF00074656D70203D200068756D203D200000DB
:102C000080B50648016810220A4302600320FFF7DE
:102C100071FCFFF76BF8002002BD000000200240AD
:102C200070B5020040325378202B14D14023C35C8E
:102C3000012B10D0012313702424547004682568DC
:102C40009D43256004682568164E2E402660046862
:102C5000256829431CE0022070BD70B50200403297
:102C60005378202B12D14023C35C012B0ED00123BB
:102C7000137024245470046825689D4325600468FB
:102C80002568094E2E400902314301E0022070BD43
:102C90002160006801680B43036020205070002011
:102CA000107070BDFFEFFFFFFFF0FFFFE0B5C82021
:102CB00000F042F901A800BF41A10A680260642047
:102CC0000090032301AA70213948FEF7C7FD322086
:102CD00000F032F907BD0000F8B584B005000C0023
:102CE00001A800BF37A10A6802600722002102A8DC
:102CF000FFF780F82E4E64200090032301AA702174
:102D00003000FEF7ABFD522000F016F9C82000900D
:102D1000072302AA70213000FEF72CFE802102AEAC
:102D20003078084215D1FF230022B05C58400300E0
:102D3000082758000B4202D03123434000E0030033
:102D40007F1EF6D1521C052AEFDDB079DBB283423B
:102D500001D001202AE00094F778D624A405380792
:102D6000000D3179401800027179401800F0F8F830
:102D70000100200000F004F90E4900F001F90E49AD
:102D800000F056F9286070780002B1784018000110
:102D90003909401800F0E4F80100200000F0F0F8D4
:102DA000064900F0EDF800990860002005B0F0BD7C
:102DB000C800002000004843000048C20000C8428C
:102DC000BE080000AC330000012212060118CA42FE
:102DD0000AD28A420DD83822120609098918C20F70
:102DE000D20711434007704700D049080909014341
:102DF00001E0C10FC90700207047FEE70CB418B509
:102E000083B004000A0006A80290019400200090FC
:102E100002AB01A9084878441E30FDF749F90021AA
:102E2000019A1170002801D40198001B04B0019987
:102E300010BC03B0084700BFDFE2FFFFF8B5040095
:102E4000374D2068C00356D50020009080204005F3
:102E50002968014008D12968014329602968084090
:102E600000900098012000902E4F3868C00510D4C3
:102E70003868A90D01433960FEF7B6FF06003868CF
:102E8000C00506D4FEF7B0FF801B6528F7D30320EA
:102E9000F2BDC020800069680140234F00291ED088
:102EA0006268104081421AD06868384069688022A0
:102EB00052020A436A6069681C4A0A406A60686094
:102EC000C0070CD5FEF790FF06006868800706D49F
:102ED000FEF78AFF801B16498842F6D3D7E7686859
:102EE00007406068384368600098002803D028686D
:102EF0001049014029602078C00705D56869032181
:102F00008843A168014369612078800605D5686916
:102F100010218843E168014369610020F2BD00008F
:102F20001C10024000700040FFFCFFFFFFFFFEFF8F
:102F300089130000FFFFFFEF38B50500FEF754FFCF
:102F400004000020C043854202D0044800782D18B8
:102F5000FEF74AFF001BA842FAD331BD0000002053
:102F60009D2102000AD002D4491E9218FCD5C90541
:102F7000100A1206524100D3012A4841704700004E
:102F800030B405004D400122D20715404B180418FB
:102F9000240E2ED01B0E32D0FF2C34D0FF2B3AD073
:102FA000E4180002090210431143000A090A94467A
:102FB000C2B24A43000AC3B24B43000A4843110A53
:102FC0005B181A43D2B2190A091801D44918641EB1
:102FD000080A7F3C23DBFE2C08DAE40509061143CE
:102FE000634699416041284330BC7047FF20C005CB
:102FF000F9E728001B0EFF2BF6D1D043F4E7280099
:10300000FF2CF1D1F9E74002F7D1FF2B01D14902A2
:10301000F3D1E005E7E7D8054902E4D0EDE7430244
:103020000020641CDFD15B129B1CDCD9D805DAE7D9
:103030000122D20703004B402ED4431A01D2C01AFA
:10304000C91830B44B180418240E1B0E22D0FF2CC4
:1030500020D0E31A182B1DDC09021143C40D641E95
:103060000002104394461925ED1A0A00AA40D940DF
:10307000451801D36D08A41CE405D209280A2D06C1
:103080002A436546AA41604103181B0EFF2B01D35A
:10309000C00DC00530BC7047514006E05140CCE740
:1030A0000122D20703004B40F8D4431A03D2C01ABE
:1030B000C9185040514030B44B180902114304184C
:1030C000240E1B0E40D0FF2C3AD025009D410BD37F
:1030D0001ED8C50D4002401A0BD3ED050100400A71
:1030E000C90591416841D5E7C50D40024918401A0C
:1030F000D0D001214008491C0018FCD58C4204D3D3
:103100006D1A000AED054019C4E7E8051040C1E753
:10311000182DBFDCAC1C0D00E140E5414D40012DF8
:103120004941C40D00021043451A01D46D1995435D
:10313000641EE405280A2D069541604130BC7047A5
:10314000FF2BA7D1D843A5E72442A3D10020A1E7B4
:10315000686A6C747A4C00007072696E74665F7392
:103160003A20256E20646973616C6C6F776564002A
:103170007072696E74663A2062616420256E206107
:103180007267756D656E74007072696E74665F73D8
:103190003A2062616420257320617267756D656EE7
:1031A00074000000000000006E616E004E414E0091
:1031B000696E6600494E4600300070B40123002459
:1031C00013E00168001D194202D04D466D1E4919D9
:1031D0000C60091D121F042AFAD20D00960701D5B2
:1031E0000C80AD1C1A4000D02C700268001D002A13
:1031F000E7D170BC704730B5016841184468620877
:103200008A188368E40704D54C461B1901E0641C46
:1032100006D191420BD00C7864B2491C0D78491C40
:103220001D705B1C002CF2D4641EF7D5F1E70C3046
:1032300030BDFEE710B5074979441831064C7C448F
:10324000163404E0081D0A68891888470100A14265
:10325000F8D110BD08000000240000005FFFFFFF50
:103260000001000048000020000000008BFFFFFF6D
:10327000C1000000760000000000002000F00DF802
:10328000002801D0FFF7D6FF00BF00BF002000BF1D
:1032900000BFFFF7CBFB00F002F80120704780B5BC
:1032A00000F002F801BDFEE707463846FEF778FA5F
:1032B000FBE7FEE70548014603B4684680F309884A
:1032C00000BF00BF00BF00BFFFF7D8FFA5EDF5FEB0
:1032D000704700000000000000000000010203042D
:1032E000060708090148804701480047D132000815
:1032F000B532000802484168027889184160704779
:1033000000000020FEE7FEE77047704780B5FFF73A
:10331000F1FF01BD0000000001020304FEE7FEE72B
:10332000FEE7FEE7FEE7FEE7FEE7FEE7FEE7FEE775
:10333000000001F9000004FC001E127A0030330086
:1033400008303300083033000830330008303300D1
:10335000083033000830330008F8FF0B76110008FE
:0C3360003033000830330008FAFFFE0094
:04000005080032B508
:00000001FF
